:100000000C94A9030C94F0030C94F0030C94F003EB
:100010000C94F0030C94F0030C94F0030C94F00394
:100020000C94F0030C94F0030C94932A0C94672B1B
:100030000C94DC240C94F0030C94F0030C94F00367
:100040000C94F0030C94F0030C94F0030C94F00364
:100050000C94F0030C9433250C94F0030C94F003EF
:100060000C94F0030C94F0030C94F0030C94F00344
:100070000C94F0030C94F0030C94F0030C94F00334
:100080000C94F0030C94F0030C94F0030C94F00324
:100090000C94F0030C94F0030C94F0030C94F00314
:1000A0000C94F0030C94F0030C94F00329001E0050
:1000B0001F0020002100220023002400250026002C
:1000C00027002D002E002A004A002B0014001A00E1
:1000D0000800150017001C0018000C001200130087
:1000E0002F00300031004B003900040016000700DB
:1000F00009000A000B000D000E000F003300340051
:10010000000028004E00E1001D001B000600190041
:100110000500110010003600370038000000E5002F
:1001200052004D00E000E300E2002C00000000005F
:10013000000000000000E6000151000050005100E6
:100140004F0035023A003B003C003D003E003F00BE
:100150004000410042004300440045004C000100C3
:100160000100C25CC35CC55CC65CC75CC85CC95CA2
:10017000CA5C0100460047004800005C0100010025
:100180000100010001000100010001000100010067
:100190000100010001000000010001000100010058
:1001A0000100010001000100010001000100010047
:1001B000010000000100A900A800010001000100E9
:1001C000010000000000000000000000010001002C
:1001D0000000AC00AA00AB0001000100010001001A
:1001E0000100010001000100010001000100010007
:1001F00001000100010001000100010001000100F7
:1002000001000100010001000100010001000100E6
:1002100001000100010001000100010001000100D6
:1002200001000100010001000100010000000100C7
:1002300001000100010001000100010001000100B6
:1002400001000100010001000000010001000100A7
:10025000010001000100010000000000000000009A
:100260000000010001000000010001000100010088
:100270000100010001000100010001000100010076
:100280000100010001000100010001000100010066
:100290000100010001000100010001000100010056
:1002A0000100010001000100010001000100010046
:1002B0000100010001000100010001000100010036
:1002C0000100000001000100010001000100010027
:1002D0000100010001000100010001000100000017
:1002E0000100010001000100010001000100000007
:1002F00000000000000000000100010000000100FB
:100300000100010000000000000000002A2B28006E
:1003100000000000000000000000000000000029B4
:10032000000000002C1E3420212224342627252EF4
:10033000362D3738271E1F2021222324252633332C
:10034000362E37381F0405060708090A0B0C0D0E58
:100350000F101112131415161718191A1B1C1D2F24
:100360003130232D350405060708090A0B0C0D0E44
:100370000F101112131415161718191A1B1C1D2F04
:100380003130354C0000000000000000000000008B
:10039000000000000000000000000000000000005D
:1003A00000000000000000007E0F00D4FFFFFFC728
:1003B000000000781E0F0500047F3F1F64321464A4
:1003C0003214783C1E1E140A052223252628292AC9
:1003D0002C2D2F3032333536383A3B3D3E404243A8
:1003E0004547494A4C4E5051535557595A5C5E60E7
:1003F00062646668696B6D6F71737577797B7D7FF9
:1004000081838587898A8C8E90929496989A9C9EF7
:100410009FA1A3A5A7A8AAACAEAFB1B3B4B6B8B913
:10042000BBBCBEBFC1C2C3C5C6C7C9CACBCCCDCE7B
:10043000D0D1D2D2D3D4D5D6D7D7D8D9D9DADADB5E
:10044000DBDBDCDCDCDCDCDDDDDDDDDCDCDCDCDCEA
:10045000DBDBDBDADAD9D9D8D7D7D6D5D4D3D2D229
:10046000D1D0CECDCCCBCAC9C7C6C5C3C2C1BFBE11
:10047000BCBBB9B8B6B4B3B1AFAEACAAA8A7A5A37C
:10048000A19F9E9C9A98969492908E8C8A8987853B
:1004900083817F7D7B79777573716F6D6B6968661A
:1004A0006462605E5C5A5957555351504E4C4A49EC
:1004B00047454342403E3D3B3A3836353332302F94
:1004C0002D2C2A292826252322FFAA7F554000010A
:1004D0000101010101010101020202020202020204
:1004E00002030303030303030304040404040404D6
:1004F000050505050506060606060707070707089A
:10050000080808090909090A0A0A0B0B0B0C0C0C4C
:100510000D0D0D0E0E0E0F0F0F10101111111212E6
:1005200013131414151516161717181819191A1A63
:100530001B1B1C1D1D1E1E1F2020212222232424C4
:10054000252626272829292A2B2C2D2D2E2F303100
:100550003232333435363738393A3B3C3D3E3F4012
:100560004142434445464748494A4C4D4E4F5051FD
:100570005354555658595A5B5D5E5F6162646566B7
:1005800068696B6C6D6F7072737577787A7B7D7E3E
:100590008082838587888A8C8E8F91939596989A8E
:1005A0009C9EA0A2A3A5A7A9ABADAFB1B3B5B7BAA6
:1005B000BCBEC0C2C4C6C9CBCDCFD1D4D6D8DBDD7A
:1005C000DFE2E4E7E9EBEEF0F3F5F8FAFDFF2403F0
:1005D00050006F007400610074006F00200036004E
:1005E0003500200048006F00740073007700610040
:1005F000700000000E034D00610065006C006B0090
:100600006B0000000403090409025B00030100A061
:10061000FA09040000010301010009211101000190
:100620002240000705810308000A090401000203B3
:1006300000000009211101000122220007058203A8
:100640002000010705030320000109040200010343
:10065000000000092111010001227B00070584032D
:1006600020000A1201100100000008EDFE02000146
:1006700000010200010660FF0961A1010962150085
:1006800026FF009520750881020963150026FF00EA
:10069000952075089102C005010902A10185020992
:1006A00001A1000509190129081500250195087502
:1006B0000181020501093009311581257F950275F7
:1006C00008810609381581257F9501750881060581
:1006D0000C0A38021581257F950175088106C0C076
:1006E00005010980A101850319012AB7001501261A
:1006F000B700950175108100C0050C0901A10185A5
:100700000419012AA002150126A002950175108185
:1007100000C005010906A101050719E029E7150038
:10072000250195087501810295017508810105076C
:10073000190029FF150026FF0095067508810005A0
:100740000819012905950575019102950175039117
:1007500001C011241FBECFEFDAE0DEBFCDBF04B66B
:1007600003FE27C08091510390915203A09153033F
:10077000B09154038730904BA740B04BD1F4109206
:10078000510310925203109253031092540314BE5B
:1007900084B7877F84BF0FB6F894A89580916000D6
:1007A000886180936000109260000FBEE0E0F8E383
:1007B000099511E0A0E0B1E0E4E9FDE502C0059093
:1007C0000D92AC3DB107D9F723E0ACEDB1E001C02B
:1007D0001D92A135B207E1F70E9451270C947D2E9E
:1007E0000C94000081E0089581E008950C94F403D6
:1007F00008950C94F8031F93CF93DF9300D000D09B
:100800000F92CDB7DEB749835A836B83309169026B
:1008100089819A8131111DC06623B9F02223A9F084
:100820000E944822182F682F89819A810E94F42102
:1008300069817A81812F0F900F900F900F900F9008
:10084000DF91CF911F910C940B160E942022182F3C
:10085000EFCF0E94482269817A81EDCFFC01262FDB
:10086000408151816281738184810C94FB03CF9319
:10087000DF93EC0160E00E942E04BE01DF91CF9176
:100880000C94F9038F929F92AF92BF92CF92DF9216
:10089000EF92FF920F931F936B017C0181E090E038
:1008A000A0E0B0E04C015D0104C0880C991CAA1CBA
:1008B000BB1C4A95D2F7B501A4014C015D0104C0EF
:1008C000880C991CAA1CBB1C2A95D2F748295929C7
:1008D0006A297B2904C0880F991FAA1FBB1F0A958C
:1008E000D2F78A019B010C211D212E213F210417E3
:1008F00015072607370789F48C299D29AE29BF29BA
:10090000BC01CD011F910F91FF90EF90DF90CF9030
:10091000BF90AF909F908F90089580959095A095EF
:10092000B0958C219D21AE21BF21EACF0F93382FA6
:10093000262F6091D4027091D5028091D6029091B9
:10094000D702042F432F0E9442040F910C943221AE
:100950000E9482250E948723811102C00E942B24BD
:100960000C94C1070C94C40708950E94D61D0E94E0
:10097000B4042FEF84E39CE0215080409040E1F7E5
:1009800000C000000C9457250F931F93CF93DF9363
:10099000EC0161E00E942E048C01BE010E94F21362
:1009A000882389F1BE01C8010E94F603882359F10A
:1009B000BE01C8010E944217882329F1BE01C80167
:1009C0000E9494178823F9F0BE01C8010E94B7184D
:1009D0008823C9F0BE01C8010E94FF12882399F044
:1009E0008A81882339F001158CE5180751F00E3DF6
:1009F0001C4579F0CE01DF91CF911F910F910C949E
:100A0000F2030E94B50480E0DF91CF911F910F9116
:100A100008950E942B24F7CFDF92EF92FF920F935D
:100A20001F93CF93DF93E82FF0E0EC5FFC4FD4905F
:100A3000282F26952695269530E0F901EC55FC4F98
:100A40000491877010E0082E02C0159507950A944E
:100A5000E2F701701127F901EC56FC4FE490F12CFC
:100A6000082E02C0F594E7940A94E2F791E0E92297
:100A7000FF24F901EC57FC4FC491D0E002C0D5959A
:100A8000C7958A95E2F7C170DD270115110519F0A8
:100A900081EE0E94631AE114F10419F086EE0E94BF
:100AA000631A8D2D0E94621BEF2819F086EE0E94BA
:100AB000F51A012B19F081EE0E94F51ACD2B51F099
:100AC0008CE2DF91CF911F910F91FF90EF90DF901B
:100AD0000C94621BDF91CF911F910F91FF90EF90CB
:100AE000DF900895EF92FF920F931F93CF93DF93C0
:100AF000EC01162F0AE08881882309F454C0813064
:100B000009F04EC08981813099F47E0122E0E20E25
:100B1000F11C8A810E94621BE7012196812F81507E
:100B200050F3EFE9FFE03197F1F700C00000F7CF95
:100B3000823041F47E0182E0E80EF11C8A810E943D
:100B4000631AEACF833041F47E01E2E0EE0EF11C3D
:100B50008A810E94F51AE0CF843011F02196DDCF12
:100B60002A81229690E080E0AE014F5F5F4F2053D4
:100B7000330B2A30310548F0019778F2EFE9FFE0B6
:100B80003197F1F700C00000F7CF089FB001099F2F
:100B9000700D1124C901860F971F2981EA01E4CF46
:100BA0000E940C05BACFDF91CF911F910F91FF905A
:100BB000EF90089560E00C94720508950C94DD05A3
:100BC00081E008950C94E005CF93C82F0E94DE05C4
:100BD0008C2FCF910C94E205CF93DF930E940B16DC
:100BE0000E94E606EC01811521E5920708F042C05B
:100BF000811530E5930708F09DC0883E910530F5DA
:100C0000803E910508F092C0883A910588F4853AB3
:100C1000910508F084C08130910509F487C00097E0
:100C200009F484C0049708F081C0D0E0C0E07EC021
:100C30008F3B9105D0F7C85AD0E0CC0FDD1FC45DC3
:100C4000DE4F0990D881C02DD46470C081159042C8
:100C500050F4C11581E0D80708F068C0C03FD10545
:100C600020F3D06563C0C11590E4D907F0F2DF70BE
:100C7000D06A5CC0811525E5920700F5811534E541
:100C8000930708F08BC0811543E5940708F073C003
:100C9000C11582E5D80708F469C0CE018370992791
:100CA00021E030E002C0220F331F8A95E2F7C6959B
:100CB000C69580E2C89FE001112454C0C11599E592
:100CC000D907A8F4C11528E5D20708F06CC0C115F2
:100CD00036E5D30708F0A9CF8C2F0E947D07C82FD7
:100CE000D0E0DC2FCC27CC27DF71D0621FC0C1152C
:100CF0004AE5D40708F45CC0CE01905681159042B5
:100D000008F093CF8D2F8F710E947D0790E0982F70
:100D1000882788279F719C012C2BE901E6CFC55AB3
:100D2000D0E0C65ADE4FC881D0E0D064CE01DF915A
:100D3000CF910895E4E096958795EA95E1F7837061
:100D40002C2F26952695237040E2249F9001112494
:100D5000382B8C2F8370C1E0D0E002C0CC0FDD1F98
:100D60008A95E2F7C22BD32BDC68E0CFDC2FCC27AF
:100D7000C16FD06ADBCF8370992721E030E002C0D9
:100D8000220F331F8A95E2F7C695C69590E2C99F58
:100D9000E0011124C22BD32BDA68C8CFD82FCC277F
:100DA000C46FD06AC3CFDC2FCC27C06FD06ABECF50
:100DB0008C2F8F700E947D0734E0D695C7953A95A9
:100DC000E1F7CF709C2FEC01D069B0CF823891054C
:100DD000B1F1B0F48133910509F475C048F489325A
:100DE000910509F469C08A32910509F473C0089528
:100DF0008533910509F459C08933910501F10895AE
:100E0000833E9105A9F138F4803E9105F9F0823EC8
:100E1000910549F10895863E9105A9F1873E910516
:100E2000C9F1843E910519F52091430321FF1FC0AC
:100E30008091420384FD14C087EE90E008952091D4
:100E400042032370A1F080EE90E0089520914203C8
:100E500020FD47C03091430330FF09C024FF44C048
:100E600090E080E004C02091420322FDF7CF089576
:100E70002091420322FD3BC03091430330FDE3CF7C
:100E800024FFF5CFEDCF2091420323FFF0CF24FDC7
:100E9000E7CFD2CF2091420323FD2CC030914303F2
:100EA00031FFEECF84EE90E008952091420325FFBC
:100EB000DECF89E290E008952091420325FFD7CF4D
:100EC00085E390E008952091420326FFD0CF8AE287
:100ED00090E008952091420326FFC9CF81E390E07E
:100EE000089589E390E0089583EE90E0089582EEFE
:100EF00090E0089586EE90E008959091420392FF6D
:100F000006C0282F28712830F9F4877F846093FF6A
:100F100006C0282F28712831F1F4877E8461209142
:100F2000430320FF06C0382F38713830D9F4877F4B
:100F3000816021FF06C0282F28712831D1F4877ED7
:100F4000816194FD877E0895282F24712430F9F65D
:100F50008B7F8860DCCF282F2471243101F78B7EB2
:100F60008861DDCF382F3171313019F78E7F88607D
:100F7000E0CF282F2171213121F78E7E8861E1CFCA
:100F800008950C94C00708950C94C307E82FF0E06F
:100F9000EE0FFF1FE150FD4F80819181089508956C
:100FA00080EA8A95F1F7089500C008950C94D0075F
:100FB000F894E82FE295EF70F0E031A1282F2F7020
:100FC00081E090E001C0880F2A95EAF7982F90956C
:100FD000932391A392A1892B82A3789408950F93D0
:100FE0001F93CF93DF9385EF0E94D80784EF0E9471
:100FF000D80786EF0E94D80780EF0E94D80782E9C1
:101000000E94D807CDE5D1E00CE611E089910E945D
:10101000D8070C171D07D1F71092F6021092F502AF
:10102000109200031092FF021092F8021092F70241
:1010300010920203109201031092FA021092F90228
:1010400010920403109203031092FC021092FB0210
:1010500010920603109205031092FE021092FD02F8
:10106000109208031092070385E00E94C108DF91E7
:10107000CF911F910F910C94A804AF92BF92CF9281
:10108000DF92EF92FF920F931F93CF93DF930CE6C3
:1010900011E0C5EFD2E0C12CD12CEE24E394F12C69
:1010A000F80181918F01F894E82FE295EF70F0E05C
:1010B00021A18F70A70102C0440F551F8A95E2F746
:1010C000CA01922F982B91A392A18095892382A384
:1010D00078940E94D407EDE5F1E030E020E0B12CF7
:1010E000A12C4191A42FA295AF70B0E090968C9165
:1010F00090E04F7002C0959587954A95E2F780FD84
:101100003BC0C701022E02C0880F991F0A94E2F764
:10111000A82AB92A2F5F3F4F2F30310511F7F80168
:10112000319780810E94D80754E0C5120E94D607EB
:1011300088819981A816B90611F1B982A88281E047
:10114000D82AC394229685E0C812AACF2D2D45E057
:101150006FEF72E085EF92E00E94C2080E94B20435
:101160008D2DDF91CF911F910F91FF90EF90DF9028
:10117000CF90BF90AF90089590E080E0C9CF80E01D
:10118000DFCF0895FF920F931F93CF93DF93F82E35
:10119000092F162FD72FC42F222349F081E08093E7
:1011A000E0010E940C259093DF018093DE01809185
:1011B000E0018823A1F08091DE019091DF010E947F
:1011C0002425069760F0EF2DF02FA12FBD2F90E082
:1011D00080E0D0E08C179D0744F01092E001DF9191
:1011E000CF911F910F91FF900895219131912D93EF
:1011F0003D930196EFCF8091E70180FF12C060918F
:10120000090185E0689FB001112475956795759572
:10121000679560387105A8F561157105A1F1862FF4
:10122000089581FF09C06091090185E0689FB001C0
:10123000112475956795EDCF6091090182FD0AC073
:101240008091E6018823D1F0909108016091090115
:10125000891728F085E0689FB0011124DACF869FB6
:10126000B001112485E0869F9001879F300D1124E5
:10127000692F70E0C9010E94392DCBCF65E070E085
:10128000CECF8FE7089581E008958091E70180FF38
:101290000CC06091050170E075956795759567952F
:1012A0006115710549F1862F089581FF06C060918F
:1012B000050170E075956795F3CF6091050182FD9A
:1012C0000BC09091E5019923A1F0609104018091F8
:1012D0000501961738F0682F70E06038710500F34B
:1012E0008FE70895899FC001112470E00E94392D75
:1012F000F4CF61E070E0D7CF81E00895803F31F412
:101300000E94FB0881958093EB010895813F19F4B9
:101310000E94FB08F8CF823F31F40E94FB088195C0
:101320008093EA010895833F19F40E94FB08F8CFE7
:10133000893F29F40E9445098093EC0108958A3F72
:1013400021F40E9445098195F7CF8B3F31F40E942B
:10135000450981958093ED0108958C3F19F40E9411
:101360004509F8CF9CE0980F953070F4845F990B95
:1013700021E030E001C0220F8A95EAF78091E9016F
:10138000822B8093E90108958D3F31F48091E7012C
:1013900081608093E70108958E3F21F48091E701F9
:1013A0008260F7CF8F3FB9F78091E7018460F1CF7A
:1013B0004091EA01803F59F48091EB0187FF0DC015
:1013C0001092EB0141110BC01092E60108C0813F61
:1013D00081F48091EB0118169CF3442381F08091F5
:1013E000EC019091ED01892B09F05AC01092E501B2
:1013F0000895823F49F447FFF0CF1092EA018091AF
:10140000EB018111ECCFE0CF833F19F41416ACF35C
:10141000E4CF9091EC01893F29F41916F4F610926B
:10142000EC01DBCF8A3F19F497FFD7CFF8CF90912B
:10143000ED018B3F29F497FFD0CF1092ED01CDCF76
:101440008C3F19F41916CCF3C8CF9CE0980F953057
:1014500090F4845F990B21E030E0B90102C0660F7F
:10146000771F8A95E2F7CB0180959091E901892356
:101470008093E901B2CF8D3F31F48091E7018E7FF7
:101480008093E701AACF8E3F21F48091E7018D7F01
:10149000F7CF8F3F09F0A1CF8091E7018B7FF0CF8D
:1014A00008950E940C259C019091EA018091EB0126
:1014B000982B21F03093E4012093E3019091EC010B
:1014C0008091ED01982B21F03093E2012093E1010E
:1014D00088EE91E00C94FD18EF92FF920F931F930A
:1014E000CF93DF9300D000D000D0CDB7DEB786E039
:1014F000E8EEF1E0DE01119601900D928A95E1F798
:10150000E090EA01F090EB010091EC011091ED0107
:101510001092EA011092EB011092EC011092ED0191
:101520008E2D8F2991F08091E3019091E4010E942A
:101530002425AC019091E601992309F43FC08091E4
:101540000A018417150608F447C0802F812B91F0FB
:101550008091E1019091E2010E942425AC019091DB
:10156000E501992309F477C08091060184171506D7
:1015700008F47FC08091EA019091EB01892B909152
:10158000EC01892B9091ED01892B11F00E94510AF9
:1015900086E0FE013196A8EEB1E001900D928A95A9
:1015A000E1F726960FB6F894DEBF0FBECDBFDF91F0
:1015B000CF911F910F91FF90EF90089520910B0113
:1015C0008AE0289F900111242417350708F0BDCF29
:1015D0009F5F9093E60102C09F3FD1F7EE2059F044
:1015E0000E94FB089FEF1E140CF491E0899F802D50
:1015F00011248093EA01FF2059F00E94FB089FEF1D
:101600001F140CF491E0899F802D11248093EB012D
:101610003091EA01332309F498CF2091EB01222382
:1016200009F493CF45EB3403C0011124992359F0F9
:101630009093EA0145EB240390011124332339F000
:101640003093EB0182CF81E08093EA01F3CF81E018
:101650008093EB017ACF209107018AE0289F9001C7
:1016600011242417350708F085CF9F5F9093E5017B
:1016700002C09F3FD1F7002359F00E9445099FEF18
:1016800010160CF491E0899F802D11248093EC01B9
:10169000112359F00E9445099FEF11160CF491E0B7
:1016A000899F802D11248093ED013091EC0133232B
:1016B00009F460CF2091ED01222309F45BCF45EBC3
:1016C0003403C0011124992359F09093EC0145EBA8
:1016D000240390011124332339F03093ED014ACFD4
:1016E00081E08093EC01F3CF81E08093ED0142CF64
:1016F00086E0E8EEF1E0DF011D928A95E9F71092AD
:10170000E6011092E5011092E7010895EF92FF9231
:101710000F931F93CF93DF93EB01E82FD11110C0EC
:10172000442321F0F0E0E253FB4FE4916E2F7E2F33
:101730008E2FDF91CF911F910F91FF90EF90089521
:101740000D2F10E0282F30E0442329F022533B4F87
:10175000F901249130E0F6E0CF9FC0011124EFEFB2
:10176000F0E0BF010E94252DAB018C2F90E0880F87
:10177000991FA5E5A49FB001A59F700D1124861B9C
:10178000970B982F990F980FBF01601B710B629FE9
:10179000D001639FB00D729FB00D11248B2F9D9FC0
:1017A000B0011124672F7727EF01C61BD70BBE01AD
:1017B000629FE001639FD00D729FD00D11247F01C5
:1017C000E91AF108E09EB001E19E700DF09E700DE7
:1017D0001124672F7727E61BF70BE29F8001E39F19
:1017E000100DF29F100D1124E12F722F4230510580
:1017F00099F048F44115510569F04130510581F0E7
:10180000EB2F8D2F07C04430510569F080F0463032
:101810005105B1F76E2F8DCFE22F7B2F812FFACF9D
:10182000E22F7D2FF7CFEB2F822F712FF3CF7B2F5E
:10183000822FED2FEFCF41E00C94860B08950C948E
:101840001B0CCF93DF93762FE901682F842F0E9422
:101850001F0C798368838A83DF91CF910895413F7C
:1018600008F040EF0C94210C80910903982F9E7F83
:1018700061F4817082608093090380910C03813F41
:1018800018F080EF80930C0308958635B0F38170D3
:101890008465F1CF88E090E00C941E2ECF92DF9209
:1018A000EF92FF926B017C010E94340CB701A601FC
:1018B00088E090E0FF90EF90DF90CF900C943C2E6A
:1018C0006091090370910A0380910B0390910C03BE
:1018D0000C944E0CE9E0F3E083E0808311828FEFFB
:1018E000828380EF838314826081718182819381FE
:1018F0000C944E0C8091090380FF02C086950895D8
:1019000080E0089590910D03933018F49F5F9093B9
:101910000D03882351F06091090370910A038091AF
:101920000B0390910C030C944E0C089581E00C94E1
:10193000820C90910D03992319F0915090930D030F
:10194000882351F06091090370910A0380910B0381
:1019500090910C030C944E0C089581E00C94990C1A
:1019600080910D03089580930D03662351F06091DB
:10197000090370910A0380910B0390910C030C945E
:101980004E0C089560E00C94B30C80910A03089506
:1019900080910B03089580910C03089570E00C94DE
:1019A0006F13609110018091090380FF0AC080913C
:1019B0000F0123E0829FC0011124825F9C4F0C9491
:1019C000CE0C809111019091120123E0829FF001D1
:1019D0001124E25FFC4F891750F7118210821282A6
:1019E0008F5F3396F8CF9091090390FF14C09091C8
:1019F00011012091120133E0939FF0011124E25F65
:101A0000FC4F921710F00C94D10C818360834283B9
:101A10009F5F3396F6CF0895CF93DF9300D00F9258
:101A2000CDB7DEB79091090390FF0AC09E012F5FEA
:101A30003F4F0E942F0C4B8169818A810E94F30CD9
:101A40000F900F900F90DF91CF910895CF93DF9378
:101A5000EC01EC81F0E0E753FC4F4491E9E0F3E066
:101A6000628181810E940C0D8C818F5F8C83DF915C
:101A7000CF910895CF93DF93EC01E9E0F3E0438148
:101A800062818C810E940C0D8C818F5F8C83DF9131
:101A9000CF9108950F931F93CF93DF9300D00F92B0
:101AA000CDB7DEB78C018091EE0181110AC09E0195
:101AB0002F5F3F4F40EF6FEF0E942F0C8A81809382
:101AC000EE01F8016481613069F08091EE0140E03F
:101AD000662361F040E0623011F44091EE0180E055
:101AE00060E004C06091EE0140E080E00E94F30CF1
:101AF000F801848190E0019663E070E00E94392D46
:101B000084830F900F900F90DF91CF911F910F91D1
:101B10000895AF92BF92CF92DF92EF92FF920F9310
:101B20001F93CF93DF9300D00F92CDB7DEB7182F5E
:101B3000F62E042FE22E9091090390FF29C0E92F81
:101B4000E695AE2FB0E0AF58BE4F8C9180934A021D
:101B50009E7F923059F59E012F5F3F4F812F0E944B
:101B60002F0C4B8169818A810E94F30C10930A0328
:101B7000F0920B0300930C03EE2051F060910903E7
:101B800070910A0380910B0390910C030E944E0CFC
:101B90000F900F900F90DF91CF911F910F91FF90B9
:101BA000EF90DF90CF90BF90AF900895823019F4FE
:101BB00000910C03DBCF863019F410910A03D6CFC5
:101BC0008930D9F3893191F6E9518E2F8170D82E61
:101BD000E695F0E0E753FB4FA590B490C12CBB24F1
:101BE00060911301C61618F00E94D10CBFCF2C2DA6
:101BF00030E0A29EC001A39E900DB29E900D1124D4
:101C000070E00E94252D812FD11013C0860F4091C6
:101C10001101420F532F511D9A01220F331F240F20
:101C2000351F225F3C4F402F6F2D0E942F0CC39415
:101C3000D7CF861BECCFE9E0F3E09181282F4381D9
:101C4000628188E0890F0C94890D81E00C941B0E51
:101C5000E9E0F3E09181282F4381628188EF890FC9
:101C60000C94890D81E00C94280EE9E0F3E0628188
:101C700028E0620F08F46FEF282F438181810C94D4
:101C8000890D81E00C94350EE9E0F3E0628128E0F3
:101C9000621B08F460E0282F438181810C94890D38
:101CA00081E00C94440EE9E0F3E0438128E0420F28
:101CB00008F44FEF282F628181810C94890D81E017
:101CC0000C94530EE9E0F3E0438128E0421B08F452
:101CD00040E0282F628181810C94890D81E00C9471
:101CE000620E20E00C94890DEF92FF921F93CF9328
:101CF000DF93EC0110E0EE24EA94F12C60911301E3
:101D0000161770F00E94D10C9A818C8190FF27C029
:101D10008F5F8C83DF91CF911F91FF90EF9008959B
:101D200020911101422F410F5527551FCA019A01D9
:101D3000220F331F280F391F225F3C4F70E0C7016D
:101D40000E94392D962F8C8140910C0360910B03DA
:101D5000199F800D11240E942F0C1F5FCFCF81503F
:101D6000D8CFBF92CF92DF92EF92FF920F931F9343
:101D7000CF93DF93FC0182810FEF80FF01E010E041
:101D8000809113011817C0F00E94D10C8091F001CE
:101D9000013009F051C0811102C0809113018150BE
:101DA0008093F001DF91CF911F910F91FF90EF9001
:101DB000DF90CF90BF900895C0911101C12ED12C1A
:101DC000CC0DDD2DD11DCE01880F991FC80FD91F55
:101DD000C25FDC4F198218821A8234E0E32EF12CA4
:101DE000B12C8091F0018B0D813104F18F70082EA0
:101DF000000C990BC816D90691F480910C038E9DA6
:101E0000A0018F9D500D11245595479555954795E7
:101E10009E0160910B0380910A030E942F0CB00E6B
:101E2000F1E0EF1AF108E9F61F5FAACF87FFDFCFD5
:101E300090911301890FDBCF90E00196609113011F
:101E400070E00E94392DACCF0F931F93CF93DF9397
:101E5000809111019091120123E0829FF0011124E1
:101E6000E25FFC4F891740F1C0E0D3E060911301BD
:101E7000C61740F10E94D10C20910D018091EF0115
:101E8000820F8093EF0190910E01920F90930E01BB
:101E9000191654F4082E000C990B4091130141506F
:101EA000550B841795071CF0219520930D01DF91A8
:101EB000CF911F910F9108951182108212828F5F2E
:101EC0003396D0CF0C2F10E070E0C8010E94392D5E
:101ED00020911101820F482F50E02091EF01022E36
:101EE000000C330B02171307BCF020910E01022ED9
:101EF000000C330B201731077CF08D9F90011124CB
:101F0000225F3C4F40910C0360910B0380910A03C8
:101F10000E942F0CCF5FAACFFA01EE0FFF1FE40F34
:101F2000F51FE25FFC4F118210821282F3CF8F9275
:101F30009F92AF92BF92CF92DF92EF92FF920F9358
:101F40001F93CF93DF93EC014C81042F10E0980195
:101F5000D8010E94842D9B01AC010E949A2D4B0157
:101F60005C01E0E2F0E0E01BF10BA5E5B0E0AC01C4
:101F70009B010E949A2D6B017C019F01DF010E9451
:101F80007C2D9B01AC010E94A52D9B01AC01280D6D
:101F9000391D4A1D5B1DC701B6010E944D2DF22E51
:101FA000822F90E039E23F1560F143E0249F9001D9
:101FB000112435952795122F109500E085E5E82E20
:101FC000EF1880911301081758F10E94D10C9C81E1
:101FD00081E0992319F0903219F48FEF80930C016E
:101FE00080910C01890F8C83DF91CF911F910F910C
:101FF000FF90EF90DF90CF90BF90AF909F908F9029
:10200000089525E530E0B901681B790B9B01220F8B
:10201000331F260F371F37FFCCCF2F5F3F4FC9CF5E
:102020008E2D01FD8F2D20911101622F600F7727DA
:10203000771F9B01220F331F260F371F225F3C4F54
:10204000412F60910B030E942F0C0F5FBACF0F93AB
:102050001F93CF93DF93EC0110E000E09091130108
:102060009017110609F06CF40E94D10C8C8190E05D
:102070000196817099278C83DF91CF911F910F91E9
:10208000089520911101A801420F511D9A01220FBC
:10209000331F240F351F225F3C4F4C8160910B038F
:1020A00080910A0396959017110651F04CF0442345
:1020B00049F040910C030E942F0C0F5F1F4FCECFB1
:1020C0004423B9F340E0F7CF4F925F926F927F9233
:1020D0008F929F92AF92BF92CF92DF92EF92FF9238
:1020E0000F931F93CF93DF93FC016280448081E0C4
:1020F0008483E9ECF3E07490E8E4F4E0E491812C6B
:1021000075E0972EF2E0CF2EDD24D394AA24AA9472
:10211000B12C55245A94E7190E2F10E08091130129
:10212000881690F0DF91CF911F910F91FF90EF9063
:10213000DF90CF90BF90AF909F908F907F906F90E7
:102140005F904F900C94D10CE82CF12C82E0861516
:1021500068F09E9CF0019F9CF00D1124EF50FE4F03
:1021600080910A03808380910B038183411023C0F7
:102170009E9CF0019F9CF00D1124EF50FE4F1382A6
:10218000128220911101C701820F911D9C01220F23
:10219000331F280F391F225F3C4F9E9CF0019F9CEC
:1021A000F00D1124EF50FE4F4281618180810E9429
:1021B0002F0C8394B3CF9E9CE0019F9CD00D1124E3
:1021C000CF50DE4F8B818823E9F081508B83859D32
:1021D000C00111246C8170E00E94252DFB01FF27B6
:1021E000E753FC4F8491E82FE719E59DC0011124C6
:1021F000B8010E94252D80910C03689FB001112425
:102200007A83BFCF0E94F92D20910C032695215887
:102210002C9DA0012D9D500D1124452F552784176D
:1022200095070CF0AECF82E0861588F40E94F92D58
:10223000B5010E94392D88830E94F92D20910B034E
:102240002695622F70E00E94392D280F29839E9CCD
:10225000F0019F9CF00D1124EF50FE4F12828091EF
:102260000C03893C58F088EC9E9CF0019F9CF00D7B
:102270001124EF50FE4F8483838383CF8431A0F7F2
:1022800084E1F2CFE9E0F3E080818E7F808360819A
:102290007181828193810E944E0C10924B022FEF2C
:1022A00080E792E0215080409040E1F700C00000BC
:1022B0000C94D10CE9E0F3E080818E7F8083109252
:1022C0004B022FEF80E792E0215080409040E1F7F1
:1022D00000C000000C94D10C10924B028091480277
:1022E00081110AC081E080934802809109038170C6
:1022F000809347020C945A110895609109036695E2
:1023000070E04BE050E084E191E00E94092E892BBF
:1023100019F481E080934B020E940C2590934202B5
:102320008093410208959091090390FF35C0917008
:10233000811128C0926090930903662351F0609147
:10234000090370910A0380910B0390910C030E9482
:102350004E0C60910903669570E04BE050E084E11B
:1023600091E00E94092E892BA1F010924B0281E08E
:102370008093440240910C0360910B0380910A0307
:102380000C94710E8B3210F09465D5CF880F982B7A
:10239000D2CF0E947D11EBCF0895682F9091090351
:1023A000969581E0890F8B3208F081E00C949311AF
:1023B00081E00C94CD11682F9091090396958FEFD1
:1023C000890F09F48AE20C94931181E00C94DB11DB
:1023D00061E00C949311E9E0F3E0808181608083F7
:1023E00086950C94E8118091090380FD0C944211AC
:1023F0000C94EB1160E00C949311809149028111CF
:102400002EC00E948723811104C00E942B240E94A9
:102410006A0C0E944A0C6093090370930A0380932C
:102420000B0390930C036E7F61F40E946A0C0E9470
:102430004A0C6093090370930A0380930B039093F3
:102440000C030E94340C10924B028091090380FF10
:1024500003C086950E94FA1181E080934902089595
:10246000E9E0F3E080818160808386950C94FA1125
:10247000109248028091470281110E9430120C9400
:102480007D110F931F93CF93DF9380914B0288238D
:1024900009F496C080914A02E0910903E695E81B91
:1024A000E0934302823091F5F0E0EB53FC4FE4916E
:1024B000CE2FD0E006E21DE080914402882361F037
:1024C000109244020E940C25909342028093410294
:1024D00010924602109245020E940C25E0914102A2
:1024E000F09142028E1B9F0B8F3F9F4708F068C000
:1024F000EC0FFD1FF0934202E093410281E492E071
:10250000F801DF91CF911F910F910994863049F422
:10251000F0E0EE53FC4FE491CE2FD0E00AE31DE053
:10252000CBCF893051F4E695F0E0E154FC4FE491D3
:10253000CE2FD0E004E71EE0BFCF8F3051F4E695F8
:10254000F0E0E454FC4FE491CE2FD0E001EB1EE02C
:10255000B3CF853149F4F0E0E754FC4FE491CE2F3E
:10256000D0E004E21FE0A8CFC8E2D0E007E91FE016
:10257000883109F4A1CF833239F4E7EBF3E0C59158
:10258000D4910AE41DE098CFC4EFD1E007E210E156
:10259000843209F491CFC0EDD7E00EE11CE0853222
:1025A00009F08ACF8E2F63E00E94192DE92FF0E009
:1025B000EC54FC4FE491CE2FD0E004E610E17CCF48
:1025C000DF91CF911F910F910895FA01811101C000
:1025D000FB010994CF93DF93C82FD62F0E947A0C6A
:1025E0008C1740F00E947A0C8D1720F4DF91CF9168
:1025F0000C94D8118C2FDF91CF910C94E8110F938C
:102600001F93CF938C01FB01C281CC2309F465C0D9
:102610000E94DD228272F801E25CFC45E431F105A2
:1026200038F4E158F14D0C946F2D0E94F311C0E085
:102630008C2FCF911F910F91089545EE51E168EDD8
:1026400071E10E94E512F3CF48ED51E165EE71E1D1
:10265000F8CF42E35EE065E27EE0F3CF45E25EE084
:1026600062E37EE0EECF40E55EE061E47EE0E9CF4C
:1026700041E45EE060E57EE0E4CF4EE65EE06FE5DB
:102680007EE0DFCF4FE55EE06EE67EE0DACF4DEA3A
:102690005CE066E97CE0D5CF46E95CE06DEA7CE091
:1026A000D0CF81E00E94E811C2CF65E082E00E94B5
:1026B000EA12BDCF68E086E0FACF6EE089E0F7CF9E
:1026C00064E18FE0F4CF67E185E1F1CF88E1EACF03
:1026D00062E289E1ECCF83E2E5CFC1E0A9CF559A70
:1026E0004BB14F7D5BB15062EFB7F8949B01220F65
:1026F000331F260F371F280F391F2817390741F4BA
:10270000EFBF8FE594E00197F1F700C00000089556
:10271000DC016D91CD0178E05BB9000000C067FF7E
:102720004BB9660F000000C000C000C04BB900C02C
:102730007A9591F7E2CF82E290E00E94162E8132E4
:1027400089F483E290E00E94162E853059F484E2E9
:1027500090E00E94162E91E0823109F090E0892FDE
:102760008170089580E0FCCFCF93C82F6FEF811167
:1027700061E282E290E00E942A2E6FEFC11165E0D3
:1027800083E290E00E942A2E6FEFC11162E184E2A1
:1027900090E0CF910C942A2E80E00E94B4130C9408
:1027A0008123089585E290E00E94162E682F70E044
:1027B00090E080E0089585E290E00C942A2E0E943B
:1027C000D1130E949B1381110CC060E070E0CB011B
:1027D0000E94DB130E9483150E946F1681E00C9407
:1027E000B4130895CF93FB01C281CC2309F19C015E
:1027F00022513F452031310520F582510E947F163C
:10280000C0E08C2FCF91089581E00E94582143E0D1
:1028100062E081E00E949604F3CF81E00E9479217A
:1028200043E062E081E00E949604EBCF82E0F6CFC5
:102830008031FFE59F0789F381319F45B9F3C1E0FE
:10284000E0CF8031EFE59E07F9F281319F45C9F66F
:1028500082E0DBCF2FEFFC0120830895CF93DF933D
:10286000EC0188818138A9F028F4803871F0DF917B
:10287000CF910895823881F08338C9F70E94C50C42
:1028800089830E94C80C8A83F2CF0E94CB0C898373
:10289000EECF0E947A0CFBCF0E94B00CF8CFCF9302
:1028A000DF93EC0188818138E1F028F4803869F009
:1028B000DF91CF910895823811F18338C9F70E94D2
:1028C000CB0C482F6A81898108C0D9810E94C80C2D
:1028D000C82F0E94C50C4D2F6C2FDF91CF910C9407
:1028E000710E89810E94FA118981811104C0DF91E2
:1028F000CF910C945A11DF91CF910C9430128981B1
:10290000DF91CF910C94C20CEF92FF920F931F9323
:10291000CF93DF93EC01062FDC01ED91CD01E15067
:10292000E33108F0ADC0F0E0ED56F14D0C946F2DA1
:10293000198289E08A83602FCE01DF91CF911F91A8
:102940000F91FF90EF900C9446268981823069F0B8
:10295000833071F08130D9F40E9418250E94752DC2
:102960006A837B838C839D83E6CF0E94D213F6CF4C
:102970007E0110E0812F0E94C607F70192838383B6
:102980001F5FF2E0EF0EF11C1530A1F7D4CF602FDE
:10299000CE010E942A14CFCF89818230C1F76A818B
:1029A0007B818C819D810E94752D0E94DB13C3CF9A
:1029B0004B816A8189810E9455159827892798271C
:1029C0009D838C83B8CF2C813D81322723273227EA
:1029D0004B816A8189810E946E15ADCF0E9483155B
:1029E000AACF0E944F14A7CF0E942E14A4CF0E94FA
:1029F000600CA1CF0E94181689839DCF0E941A16E1
:102A00009827892798279A83898395CF6B8170E0CF
:102A100089819A81AE014C5F5F4F9827892798275B
:102A20000E941D1688CF6B8170E089819A81AE016A
:102A30004C5F5F4F9827892798270E9444167BCFC9
:102A40000E946F1678CF0E944315D6CF6B8170E03D
:102A500089819A81AE014C5F5F4F9827892798271B
:102A60000E94BB1568CF6B8170E089819A81AE01AD
:102A70004C5F5F4F9827892798270E94E1155BCF0D
:102A80008FEF888358CF84E0089550E0440F551F9E
:102A90009EE1699F400D511D112496E9899F400DCB
:102AA000511D1124CA01869608950F931F93CF9349
:102AB000DF930E9445158C010E94162EC82FD0E08E
:102AC000DC2FCC27C80101960E94162E9E01282BD0
:102AD000C901DF91CF911F910F9108950F931F931B
:102AE000CF93DF93122F032F0E944515EC01602F27
:102AF0000E942A2E612FCE010196DF91CF911F9166
:102B00000F910C942A2EAF92BF92CF92DF92EF9248
:102B1000FF921F93CF93DF938CEAC82E80E0D82ECC
:102B2000D0E07601C0E014C0F50125913491412F29
:102B30006C2F8D2F0E946E1582E0A80EB11C1F5FB6
:102B40001F3091F78EE1E80EF11CCF5FC53019F010
:102B5000570110E0E9CFDF5F86E9C80ED11CD43001
:102B600001F7DF91CF911F91FF90EF90DF90CF9011
:102B7000BF90AF900895EF92FF920F931F93CF9362
:102B8000DF93EC018A017C01E60EF71ECE018696EA
:102B9000CE15DF0539F4DF91CF911F910F91FF9092
:102BA000EF900895C83522E0D20740F40E94162E17
:102BB000F80180830F5F1F4F2196E8CFF801108244
:102BC000F9CFCF92DF92EF92FF920F931F93CF93A3
:102BD000DF937C016A018C01060F171FEC01CE0107
:102BE0008696C017D10749F4DF91CF911F910F91BD
:102BF000FF90EF90DF90CF900895C83522E0D20784
:102C000040F4FE01EE19FF09EC0DFD1D60810E94EC
:102C10002A2E2196E4CF462F843038F4753028F4DC
:102C20006F3018F4672F0C94551590E080E00895EC
:102C300080E1089582E891E00895EF92FF920F936A
:102C40001F93CF93DF93EC018A017C01E60EF71E00
:102C5000CE0182589D4FCE15DF0539F4DF91CF911B
:102C60001F910F91FF90EF900895C23821E0D20795
:102C700040F40E94162EF80180830F5F1F4F2196AB
:102C8000E7CFF8011082F9CFCF92DF92EF92FF9257
:102C90000F931F93CF93DF937C016A018C01060F82
:102CA000171FEC01CE0182589D4FC017D10749F480
:102CB000DF91CF911F910F91FF90EF90DF90CF9018
:102CC0000895C23821E0D20740F4FE01EE19FF0951
:102CD000EC0DFD1D60810E942A2E2196E3CFCF933B
:102CE000DF93CEE7D2E060E0CE010E942A2E21964B
:102CF000C11584E0D807B9F7DF91CF910895DF922D
:102D0000EF92FF920F931F93CF93DF9300D000D0E9
:102D1000CDB7DEB7F82E8FE08F1540F08FEF93E040
:102D20000E94162E0EE712E08823C1F00F900F903C
:102D30000F900F90DF91CF911F910F91FF90EF9027
:102D4000DF900895011584E0180781F3C8010E94FF
:102D5000162E811101C0FA940F5F1F4FF110F2CFB0
:102D600019821A821B821C82DD24D39478018FEF92
:102D7000E81AF80AC8010E94162E89831A8288234D
:102D8000A9F29FEF980F933078F48A83D9820E5F6F
:102D90001F4FC7010E94162E8B83882339F2CE0164
:102DA00001960E94DA05E2CF8701F9CF0F931F93B6
:102DB000CF93DF93C42FD22FFC0182818823C9F0E7
:102DC00040934E020E940C2590934D0280934C023A
:102DD00080E28C0F883008F050C0C77081E001C0DD
:102DE000880FCA95EAF7DF91CF911F910F910C944C
:102DF0006A1B10914E02141335C080914C029091C1
:102E00004D020E942425883C910560F5C0E2CD0F5B
:102E10001D17B9F080E2810F883040F4177081E00F
:102E200001C0880F1A95EAF70E94711BC83048F458
:102E300081E09D2F977001C0880F9A95EAF70E9454
:102E40006A1B802F0E94621BC830B8F4D77081E0E3
:102E500001C0880FDA95EAF7DF91CF911F910F91AA
:102E60000C94711B80E28C0F883038F4C77081E0BD
:102E700001C0880FCA95EAF7EFCFDF91CF911F917C
:102E80000F9108950F939C01CB01233F4CE534072C
:102E900059F1A8F4283DFCE53F0701F1293D4CE537
:102EA0003407D1F1273D3C4591F406E221EE41EE95
:102EB00067ED7CE50E94D61680E00F910895253FCE
:102EC000FCE53F07E9F0B0F0263F3C45F9F0FC0196
:102ED0008281882339F110924E02EFCF07E225EE6E
:102EE00045EE68ED7CE5E6CF06E221EE40EE63EFCD
:102EF0007CE5E0CF07E225EE44EE64EF7CE5DACF37
:102F000006E221EE42EE65EF7CE5D4CF07E225EE46
:102F100046EE66EF7CE5CECF08E221E045EE69EDB6
:102F20007CE5C8CF81E0C9CFCF93DF93EC01FB01F3
:102F30008281882309F419C1C230FCE5DF07C0F1A2
:102F4000C6319CE5D90730F09E012A5F3C45293007
:102F5000310570F50E949A239093430380934203B6
:102F6000C031ECE5DE0709F4CFC008F05BC0C83023
:102F70008CE5D80709F4B6C088F5C430ECE5DE0767
:102F800009F4A8C0C0F4C2308CE5D80709F49CC08D
:102F9000809142038260C330DC4509F498C080917F
:102FA0004203909143030E94A8230E94D61D80E013
:102FB000DF91CF910895809142038061C630ECE5A6
:102FC000DE0709F484C0809142038860C730DC4585
:102FD00008F47DC080914203806279C0CC308CE5DA
:102FE000D80709F489C070F4809142038C60CA301C
:102FF000ECE5DE0709F46BC008F478C08091420369
:103000008E7F65C0CE308CE5D80709F479C08091F9
:1030100042038B7FCF30DC4508F459C080914203D6
:103020008F7E55C0CB3FECE5DE0709F457C030F585
:10303000C3318CE5D80709F46FC078F4C131ECE5F1
:10304000DE0709F465C0C231DC4509F0A8CF0E9453
:10305000D61D809142038F773AC0C5318CE5D807E1
:1030600009F462C008F476C0809143038160CA3FCE
:10307000DC4509F094CF8093430391CFCF3FFCE52B
:10308000DF0709F44DC088F4809143038D7FCD3F65
:103090009CE5D90781F3809143038E7FCE3FDC45C9
:1030A00050F3809143038360E6CFC130FDE5DF0735
:1030B00009F459C008F444C080E0C230DD4509F08D
:1030C0006ECF0E942D246BCF80914203816080934C
:1030D000420365CF809142038460F9CF809143031E
:1030E0008260C9CF809142038064F1CF0E94D61DD7
:1030F000809142038068EBCF809142038D7FE7CFC0
:1031000080914203877FE3CF809142038F7DDFCFA1
:10311000809142038F7BDBCF80914203837FD7CFA7
:10312000809143038C7FA7CF8091420382FB992734
:1031300090F921E0922790FB82F990FB83F9C7CFA9
:1031400080914303982F909591708E7F892B90FBEF
:1031500081F991CF0E94D61D90914203892F97FB50
:1031600087F98058B4CF81E0ACCF81E021CFCF93F5
:10317000DF93EB0186319C4511F50E94DD229A8197
:10318000992399F08A7A91E009F490E090934F02A4
:10319000811109C089E20E94B8220E941C2380E0AC
:1031A000DF91CF91089585E3F6CF80914F02811191
:1031B00004C089E20E94BF22F0CF85E3FBCF81E00B
:1031C000EFCF90935502809354020895E0915402FA
:1031D000F0915502309721F00190F081E02D099493
:1031E00080E00895E0915402F0915502309721F06B
:1031F0000280F381E02D09940895E0915402F0914A
:103200005502309739F022E0DC012C930480F581DF
:10321000E02D09940895209152023091530228170D
:10322000390771F09093530280935202E091540257
:10323000F0915502309721F00680F781E02D099436
:10324000089520915002309151022817390771F0EA
:103250009093510280935002E0915402F0915502F4
:10326000309721F00084F185E02D099408950E94A3
:1032700018256093650270936602809367029093AD
:10328000680260936102709362028093630290937C
:103290006402089585B7806885BF85B7806885BF5B
:1032A0000895089508950C94511908950C94551992
:1032B0000E944A198FE793E20E947B250E945219CF
:1032C0000C94531981E008950C946219089508959F
:1032D0000E9403250E94EF070E94DF130E94992598
:1032E0000E94FD110C9456198F929F92AF92BF923B
:1032F000CF92DF92EF92FF920F931F93CF93DF93C2
:10330000CDB7DEB72A970FB6F894DEBF0FBECDBF9C
:103310000E9466190E9467190E943D0881110E944F
:10332000371957E5852E52E0952E10E000E0A02ECB
:10333000802F0E94C6076C01F401E190F1904F01CB
:10334000E816F90609F45EC08091E90281FD0E9449
:10335000CF07C7018C259D25B12CEE24E394F12CD9
:103360009C012E213F21232B09F446C00E946419A1
:103370008823A9F0BE82AF82CE20DF2081E0CD2855
:1033800009F480E088870E940C258160782F9A8755
:1033900089874E815F8168858A850E942C1A000F7B
:1033A000111FF801E95AFD4F80819181E826F92625
:1033B000F182E0820E9441120E946C0A0E94E6188B
:1033C000909156028917A9F10E94E618809356023F
:1033D0002A960FB6F894DEBF0FBECDBFDF91CF9116
:1033E0001F910F91FF90EF90DF90CF90BF90AF9023
:1033F0009F908F900C94E405B394EE0CFF1CFFE0BB
:10340000BF12AECF0F5F1F4F0530110509F08FCFF0
:103410008FEF89838A831B820E940C258160782F1D
:103420009D838C8349815A816B818D810E942C1AE6
:10343000C1CF2A960FB6F894DEBF0FBECDBFDF9185
:10344000CF911F910F91FF90EF90DF90CF90BF90A1
:10345000AF909F908F900895DF92EF92FF920F931D
:103460001F93CF93DF93CDB7DEB72B970FB6F894AA
:10347000DEBF0FBECDBF7A878B87F42E052F162FA8
:10348000E72ED82E61110E94FD221E821D827E2D04
:10349000EC82DD824F2D502F612F8D2D9E812B963A
:1034A0000FB6F894DEBF0FBECDBFDF91CF911F9155
:1034B0000F91FF90EF90DF900C944C20FC018081E5
:1034C00091810C948A22CF93C82F882309F48BC052
:1034D0008238C1F40E94E61881FD85C089E30E940C
:1034E000B8220E941C232FEF81EE94E021508040EF
:1034F0009040E1F700C0000089E30E94BF22CF9115
:103500000C941C238338A1F40E94E61880FD6BC044
:1035100083E50E94B8220E941C232FEF81EE94E0E5
:10352000215080409040E1F700C0000083E5E5CFE6
:103530008438A1F40E94E61882FD55C087E40E94F9
:10354000B8220E941C232FEF81EE94E0215080408E
:103550009040E1F700C0000087E4CFCF8CEF8C0FE4
:10356000813A90F46C2F80911F01909120010E946C
:103570004424882329F08C2F0E94BF220E941C2300
:103580008C2F0E94B822BBCF80E28C0F883048F489
:10359000C77081E001C0880FCA95EAF70E94E02257
:1035A000AECFEBE5EC0FE33040F4F0E0E653FE4F36
:1035B000808190E0CF910C940B19E8E5EC0FE73196
:1035C00050F4F0E0EE0FFF1FE456FE4F8081918132
:1035D000CF910C942119C03F30F08C2F0E947E09AE
:1035E000CF910C94510ACF910895882309F452C0C9
:1035F000823871F40E94E61881FF4CC089E30E9472
:10360000B8220E941C2389E30E94BF220C941C2331
:10361000833859F40E94E61880FF3CC083E50E947D
:10362000B8220E941C2383E5EFCF843859F40E940E
:10363000E61882FF2FC087E40E94B8220E941C2354
:1036400087E4E2CF9CEF980F913AF0F290E2980F66
:10365000983050F4877091E001C0990F8A95EAF78D
:10366000892F0E94E622D2CF9BE5980F933020F459
:1036700090E080E00C940B1998E5980F973120F4B6
:1036800090E080E00C942119803F20F00E94D8093E
:103690000C94510A08951F93CF93DF93182FEB01D9
:1036A0000E94631A209731F4812FDF91CF911F91EF
:1036B0000C94F51A8FE99FE00197F1F700C0000024
:1036C0002197F0CF70E060E0893311F460E570E09D
:1036D0000C944B1B882321F00E94E0220C941C23A5
:1036E0000895882321F00E94E6220C941C2308955B
:1036F000BF92CF92DF92EF92FF920F931F93CF93DF
:10370000DF936C01D62FC72FFC0112810581029532
:103710000F700E94D622E82E8823A1F0E12E1123FB
:1037200089F08C2F807F803429F080E28D0FE12C8E
:10373000883040F082E00E9467230E94D62291E008
:10374000E82EE926BC2EB2949FE0B922FBE0FB15DF
:1037500098F1EB2DF0E0EA55F14D0C946F2D0C2F04
:103760000F70C07F11F00295007F1123A9F0002394
:1037700059F080E28D0F883010F0D11109C0802FF0
:103780000E94E0220E941C238D2F0E94631A14C005
:10379000802F0E94F022F6CF8D2F0E94F51A002371
:1037A00059F080E28D0F883010F0D1112CC0802F9D
:1037B0000E94E6220E941C232B2D2850330B24301C
:1037C000310520F40E94E6180E94E405EE2009F479
:1037D0008EC10E94D22280FD8AC1F60112820E940F
:1037E000CC220E945821C6010E94981D0E94CC2222
:1037F000DF91CF911F910F91FF90EF90DF90CF90CD
:10380000BF900C947921802F0E94F622D3CF2C2FC9
:103810002F70F22EC07FC03219F0F29480EFF822A0
:10382000DD2369F0D13049F1112391F1002351F1E9
:10383000F601858180FFA8CF8F70858323C0112377
:1038400081F0011106C00E9403238F290E946A1B88
:10385000B3CF0130C1F70E9403238F290E940923AF
:10386000ABCF011106C00E9412238F2D0E94711B45
:10387000A3CF013009F4A0CFF6CF112329F00630F1
:1038800008F09ACF8F2DE2CF053008F095CFEDCF1D
:10389000002359F3D93349F4FFEF27EE33E0F15019
:1038A00020403040E1F700C000008D2F0E94F51A43
:1038B00083CF8C2F86958695837069F0813009F0CF
:1038C0007BCF8D2F9C2F9370111102C090E080E070
:1038D0000E94211971CF8D2F9C2F9370111102C05E
:1038E00090E080E00E940B1967CF8D2F112329F003
:1038F0000E947E090E94510A5FCF0E94D809FACF28
:103900008C2F837009F041C0111156CF4D2F429575
:1039100046954770440F440F0D2F0F7010E030E0B4
:1039200020E0042E04C0000F111F221F331F0A9431
:10393000D2F760E070E0CB01D4FF0FC06FE070E021
:1039400080E090E004C0660F771F881F991F4A959A
:10395000D2F76095709580959095C695C695C37081
:10396000602B712B822B932BC23049F058F4C1305D
:1039700019F00E940A2120CF0E94F8201DCF0E943A
:103980001C211ACF0E94F62017CF8695112311F023
:103990008C2F8170882309F40FCF4D2F42954695C7
:1039A0004770440F440F0D2F0F7010E030E020E0FF
:1039B000042E04C0000F111F221F331F0A94D2F7D8
:1039C00060E070E0CB01D4FF0FC06FE070E080E0FA
:1039D00090E004C0660F771F881F991F4A95D2F7A1
:1039E0006095709580959095C695C695C370602B2F
:1039F000712B822B932BC23049F058F4C13019F04F
:103A00000E94CF21D9CE0E94BD21D6CE0E94E121B5
:103A1000D3CE0E943221D0CECF70112329F08C2F2B
:103A20000E9458218D2F12CF8D2F0E94711B8C2F39
:103A30000E947921C1CED23F89F160F4D03FC9F014
:103A4000D13F29F1112309F442C001119DCE8C2FE1
:103A50008F7121C0D33F39F1D43FA1F7112369F110
:103A6000CF718C2F0E94582163E08C2F0E9452232B
:103A7000A3CE112341F0053008F09ECE8C2F8F711C
:103A80000E949C2199CE063008F096CEF7CF8C2F5D
:103A90008F71112369F20E9458218ECE8C2F8F7165
:103AA0001123C9F3C5CF112329F08C2F8F710E94E8
:103AB000432182CE0E943E217FCE81E00E94672377
:103AC000023008F479CE82E00E94672375CE00238D
:103AD00059F0D93309F0E9CE8FEF97EEE3E081504A
:103AE0009040E040E1F7DFCE8C2F8F71A1CFDF91C6
:103AF000CF911F910F91FF90EF90DF90CF90BF90EB
:103B000008950F931F93CF93DF93EC016881798120
:103B10008A810E9494228C010E94F3210E94F52048
:103B2000B801CE01DF91CF911F910F910C94781BBA
:103B3000CF93DF93EC018B819C81892B29F08881C5
:103B4000998189238F3F59F4DF91CF910895CE0158
:103B50000E94811DCE01DF91CF910C943704CE01DC
:103B60000E94C4048111F3CF0E94D622882361F3FE
:103B70008A81882349F382E0DF91CF910C946723F7
:103B800090E080E00E940B1990E080E00E942119F3
:103B90000E94FD220E9400230E941C230E94780B99
:103BA0000C94510A0E94C6220C94C01D0E94ED2262
:103BB0000C94D21DE92FE295EF70E250EE3070F4D4
:103BC000F0E0EE54F14D0C946F2D803F19F020F48D
:103BD000883E20F481E00895843FE1F380E0089579
:103BE000883EC0F3813FD1F7F5CF93FB882780F95A
:103BF00008950E948A220C94DA1DCF93DF9300D09F
:103C000000D00F92CDB7DEB70F900F900F900F90AE
:103C10000F90DF91CF910895CF93DF9300D000D024
:103C200000D0CDB7DEB726960FB6F894DEBF0FBE34
:103C3000CDBFDF91CF9108951F93CF93DF93C091B4
:103C40006A0216E080916B028C1304C0DF91CF9161
:103C50001F910895D0E01C9FF0011D9FF00D1124CD
:103C6000E459FD4F40815181628173818481958146
:103C70000E940C1E2196C770E5CF40919C02509186
:103C80009D0260919E0270919F028091A00290918E
:103C9000A1020C940C1E1F93CF93DF938091A1027D
:103CA000807FA9F480919E02882389F080916A0226
:103CB000C0916B0260919C0270919D02A0919F0245
:103CC000B091A002D62FD72316E0C81304C0DF910D
:103CD000CF911F91089590E0109711F0DF3F19F4F4
:103CE00001968770F2CF189F9001199F300D112413
:103CF000F901E459FD4F41814713F2CF408146134A
:103D0000EFCF42814111ECCF438154814A1B5B0BC1
:103D1000483C510528F78091A1028F708061809303
:103D2000A102F901EF58FD4F80818F70806180837F
:103D30008CE992E00E94981DDF91CF911F910C9425
:103D40001C1EAF92BF92CF92DF92EF92FF920F9321
:103D50001F93CF93DF93CDB7DEB761970FB6F8947B
:103D6000DEBF0FBECDBF8C0185E0F801DE011D96E0
:103D700001900D928A95E1F7F80140815181E2802E
:103D80008CE9C82E82E0D82E60919F027091A0022B
:103D90006115710509F461C190919C0220919D0209
:103DA000892F82238F3F09F458C1A380B480F090FB
:103DB0009E02F501E61BF70BFF2009F4FCC0809181
:103DC000A102382F307FE83CF10508F0B2C0311174
:103DD00079C0FE2C251323C0941321C0E1101FC00D
:103DE0008F7080618093A1020E943D1EC6010E94D7
:103DF000981D8091A102F80185838F2D61960FB6E1
:103E0000F894DEBF0FBECDBFDF91CF911F910F9110
:103E1000FF90EF90DF90CF90BF90AF900895AB28C8
:103E200029F0842F85238F3F09F033C180E0F82FDC
:103E3000F170DF2E80FF3CC080916A0220916B02FE
:103E400036E0821315C04D875E878D859E850E9462
:103E50008A22292F22952F702230F0F0243018F575
:103E60009F70F1F0F8019581907FD1F4D12C1EC0A4
:103E700090E0389FF001399FF00D1124E459FD4F77
:103E80006181651306C06081641303C062816E1195
:103E90000FC001968770D5CF9F7011F0882331F342
:103EA000805E883018F3C8010E94981DFD2CA5CFB4
:103EB000EE2009F4A2CF8091A10281608093A1023B
:103EC000F12C9BCF251306C0941304C0F801EE20FB
:103ED00009F48DC04D875E878D859E850E94F91DF2
:103EE000882319F1EE2009F18091A102803270F04F
:103EF00020919C0230919D0238872F831986BB86C2
:103F0000AA868C87CE0107960E94981D86E0F8014C
:103F1000ACE9B2E001900D928A95E1F70E944B1E48
:103F20000E943D1EFF24F39468CFC8010E94981D93
:103F3000F9CF311113C07A2DB98AA88A6E2D8989DB
:103F40000E94FD1D8CE992E00E94981D86E0F6011A
:103F500011928A95E9F70E943D1EB2CF25130FC03A
:103F600094130DC0E1100BC0F8018583C8010E94B5
:103F7000981D86E0F60111928A95E9F73ECF4D87AC
:103F80005E878D859E850E94F91D882371F2EE2043
:103F900061F28091A102803208F4B8CF20919C0296
:103FA00030919D023A8329831B82BD82AC828E832D
:103FB000CE010196A9CFE83CF10508F041C0FE2CE6
:103FC000EE2009F4B2CF25132AC0941328C08091A3
:103FD000A10280FD1BC0982F907FC1F0F80185835E
:103FE000903F31F0982F907F905F8F70892B858361
:103FF000C8010E94981D86E0F801ACE9B2E001908A
:104000000D928A95E1F70E943D1EF7CE86E0F801F9
:10401000ACE9B2E001900D928A95E1F7EECE4D87C2
:104020005E878D859E850E94F91D81116FCF8091DD
:10403000A10281608093A102C8010E94981DDDCE7B
:104040007A2DB98AA88A6E2D89890E94FD1D86E085
:10405000F60111928A95E9F7D6CFEE2009F465CFE3
:104060004D875E878D859E850E94F91DF82E8823D9
:1040700009F45BCF86E0F801ACE9B2E001900D9263
:104080008A95E1F78CE992E00E945E1A0E944B1E2D
:10409000BACF81E08E25CBCE1F93CF93DF93CDB7E0
:1040A000DEB72C970FB6F894DEBF0FBECDBF4F839F
:1040B000588769877A878B879C87CE0107960E94ED
:1040C000A11E882369F08A859B85892B39F04F8151
:1040D0005885842F85238F3F09F071C016E05FC09B
:1040E00086E0FE013796DE01119601900D928A95C9
:1040F000E1F78A859B85892B89F38F8198858923B0
:104100008F3F61F320916B0230E0C9010196877007
:10411000992740916A024817190671F40E94D61D2A
:1041200010926B0210926A0286E0ECE9F2E0DF0185
:104130001D928A95E9F7D2CF96E0929FD001939F86
:10414000B00D1124A459BD4FFE01319601900D927E
:104150009A95E1F780936B020E941C1EBFCF819F4E
:10416000C001112484599D4F0E94A11E8823E9F0AB
:10417000E0916A021E9FF0011124E459FD4F408135
:10418000518162817381848195810E940C1E80918E
:104190006A0290E001968770992780936A02809165
:1041A0006A0290916B028913DACF2C960FB6F894BD
:1041B000DEBF0FBECDBFDF91CF911F9108956985FE
:1041C0007A858B859C850E940C1E88CF08950C945F
:1041D000E6200E94E7206093D8027093D902809372
:1041E000DA029093DB020C94C01D08950C94E92030
:1041F0000F931F930091D8021091D9022091DA02F7
:104200003091DB02602B712B822B932B1F910F912E
:104210000C94E9200F931F930091D8021091D902BA
:104220002091DA023091DB026023712382239323F1
:104230001F910F910C94E9200F931F930091D802C6
:104240001091D9022091DA023091DB0260277127A8
:10425000822793271F910F910C94E9200C94E6205C
:104260000C942E210E9430216093D4027093D502C9
:104270008093D6029093D7020C94C01D60E070E04A
:10428000CB010C9432210F931F9341E050E060E08A
:1042900070E08A019B0104C0000F111F221F331F11
:1042A0008A95D2F7C901B8011F910F910C94322160
:1042B0000F931F9341E050E060E070E004C0440FB2
:1042C000551F661F771F8A95D2F78091D40290916F
:1042D000D502A091D602B091D7028A019B01082B8A
:1042E000192B2A2B3B2BC901B8011F910F910C945C
:1042F00032210F931F9341E050E060E070E004C072
:10430000440F551F661F771F8A95D2F7CB01BA015C
:1043100060957095809590950091D4021091D5028A
:104320002091D6023091D7026023712382239323F8
:104330001F910F910C9432210F931F9341E050E095
:1043400060E070E004C0440F551F661F771F8A9518
:10435000D2F78091D4029091D502A091D602B0916B
:10436000D7028A019B01082719272A273B27C90161
:10437000B8011F910F910C9432210F931F9300915C
:10438000D4021091D5022091D6023091D702602B31
:10439000712B822B932B1F910F910C9432210F9331
:1043A0001F930091D4021091D5022091D602309132
:1043B000D70260237123822393231F910F910C94C2
:1043C00032210F931F930091D4021091D5022091B6
:1043D000D6023091D70260277127822793271F9139
:1043E0000F910C94322108952FE0929F800D11249B
:1043F000982F977041E001C0440F9A95EAF786958F
:104400008695869595E0899FF0011124EE55FD4F24
:1044100090E080E070E05191DF0111979B01082E40
:1044200002C0369527950A94E2F721702195252739
:10443000242325272C9301968530910561F7089553
:104440002FE0929F800D1124982F97708695869566
:10445000869525E0829FF0011124EE55FD4F50E036
:1044600040E080E0219130E0092E02C0369527958A
:104470000A94E2F721703327042E01C0220F0A9418
:10448000EAF7822B4F5F5F4F4530510559F708958A
:10449000BF92CF92DF92EF92FF920F931F93CF9331
:1044A000DF938C01C090D402D090D502E090D60268
:1044B000F090D7028091D8029091D902A091DA02AF
:1044C000B091DB02C82AD92AEA2AFB2ACFE1D0E040
:1044D000BC2ED701C6010C2E04C0B695A7959795A2
:1044E00087950A94D2F780FD0EC0219788F7B12CEA
:1044F0008B2DDF91CF911F910F91FF90EF90DF9067
:10450000CF90BF900895B8018C2F0E94EC050197C1
:1045100061F3EECFCF93DF93EC010E944822BE01FE
:10452000DF91CF910C94EC051F93CF93DF93EB01B8
:1045300090916902992331F0CB01DF91CF911F91C6
:104540000C948A22882379F0CB010E944822182FEC
:10455000682FCE010E94F421BE01812FDF91CF91FF
:104560001F910C94EC05CB010E942022182FF4CF50
:10457000682F80911F01909120010C947A24682F5C
:1045800080911F01909120010C947C2480911F0147
:10459000909120010C947E248091DC028595859574
:1045A000859508958091DC02877008959091DC02D2
:1045B000977081E009F480E008958091E802089501
:1045C0009091E802892B8093E8020895809590915C
:1045D000E80298239093E80208951092E802089563
:1045E0009091E702892B8093E7020895809590913E
:1045F000E70298239093E70208951092E702089546
:104600001092E60208958091DD02089508950C94B9
:1046100006239091DD02981721F08093DD020C941F
:10462000072308958091DD02882329F01092DD028E
:1046300080E00C9407230895E0911F01F091200180
:104640008091E8028083E0911F01F0912001808138
:104650009091E702892B8083E0911F01F091200166
:1046600080819091E602892B80839091DD029923CD
:1046700081F0E0911F01F09120018081892B8083DE
:1046800080911F01909120010E94322481110E948B
:10469000122380911F01909120010C94F21808952B
:1046A0000C944F2398E0899F90011124622B609312
:1046B000DC020E9458218091DC02859585958595C4
:1046C0000C9450231092DC0280E00C9450239091C3
:1046D000DC02809589238093DC02282F277071F4F7
:1046E000282F082E000C330B9217130639F08595EE
:1046F000859585950E9479210C946223089580E028
:1047000008956FEF7FEF90E080E00C94482E90E0EA
:1047100080E00E94242E21E08B3E9E4F09F020E095
:10472000822F089582E090E00C94162E83E090E0B2
:104730000C94162ECF9384E090E00E94162EC82F82
:1047400081E290E00E94162E982F8C2FCF91089531
:10475000CF93C92F682F84E090E00E942A2E6C2FFF
:1047600081E290E0CF910C942A2EAB01BC018FE046
:1047700090E00C943C2EAB01BC0183E190E00C94E2
:104780003C2E60E070E0CB010C94BB2360E070E055
:10479000CB010E94B5230C94C1236BEE7EEF90E019
:1047A00080E00E94482E60E082E090E00E942A2E85
:1047B00060E083E090E00E942A2E1092D8021092CE
:1047C000D9021092DA021092DB0260E084E090E0FD
:1047D0000E942A2E60E081E290E00E942A2E60E092
:1047E00085E090E00E942A2E60E086E090E00E9442
:1047F0002A2E6FEF87E090E00E942A2E40E050E0E2
:10480000BA0188E090E00E943C2E60E08DE090E0EC
:104810000E942A2E40E050E0BA0188E190E00E9418
:104820003C2E60E087E190E00E942A2E40E050E0BC
:10483000BA018CE190E00E943C2E60E080E290E0C2
:104840000E942A2E40E050E0BA0188E190E00E94E8
:104850003C2E0C94C6230C94CD23682F8EE090E060
:104860000C942A2E9C012E5F3F4FAC01485F5F4F96
:1048700080E02417350709F40895F90191919F010B
:104880009923B9F38F5FF5CF662349F0FC01329687
:1048900008962191261729F0E817F907D1F780E04B
:1048A000089581E008959C01FC0132969FEF80E01D
:1048B0004191461751F09F3F19F4411101C0982FC3
:1048C0008F5F8630A9F79F3F09F40895290F311DA6
:1048D00097FD3A95F90162830895FC013296089696
:1048E0002191261303C0DF0111971C92E817F907E5
:1048F000B9F708950C9453240C946D24029626E085
:10490000FC0111922A95E9F70895089508950C94F1
:10491000862480914803843059F10E94872480E0E6
:104920000E94E4050E946C111092EA0288E190E076
:1049300020E40FB6F894A895809360000FBE2093F2
:10494000600083B7817F846083BF83B7816083BF4A
:104950007894889583B78E7F83BF0FB6F894A89517
:1049600080916000886180936000109260000FBEAB
:1049700008950895CF930E9485240E943D080E94C7
:10498000B924C0E08C2F0E94C607892B31F4CF5F79
:10499000C530C1F780E0CF91089581E0FCCF089544
:1049A0000C94CF240E94D61D0E94E6180E94E405B4
:1049B0000E9438120C94D0241F921FB61F9211240B
:1049C0008F939F93AF93BF938091EA02811113C09D
:1049D00080913E0390913F03A0914003B091410329
:1049E0004196A11DB11D80933E0390933F03A09378
:1049F0004003B0934103BF91AF919F918F911F905E
:104A00001FBE1F90189582E084BD93E095BD9AEF7C
:104A100097BD80936E0008952FB7F89480913E0360
:104A200090913F03A0914003B09141032FBF08959F
:104A30002FB7F89460913E0370913F03809140033B
:104A4000909141032FBF08959C014FB7F894809136
:104A50003E0390913F03A0914003B09141034FBFAB
:104A6000821B930B089578941F921FB61F921124F6
:104A70008F939F93AF93BF9380913E0390913F0399
:104A8000A0914003B09141030196A11DB11D8093F7
:104A90003E0390933F03A0934003B0934103BF9123
:104AA000AF919F918F911F901FBE1F90189581E02D
:104AB0008093E00080E28093D8001092C9008FE1DB
:104AC0009EE40197F1F700C0000087E090EBDC0165
:104AD0008093510390935203A0935303B0935403D4
:104AE00088E19CE00FB6F894A895809360000FBE13
:104AF00090936000FFCF9093DD018093DC010895D7
:104B00000C94CC130E943D082FEF86E791E02150D2
:104B100080409040E1F700C000000E943D0880E026
:104B20000E94C60780FF04C00E9480250C94572570
:104B300008950E948723811102C00E942B240E94A5
:104B400092238093E9020E949A23909343038093D7
:104B500042030E949623682F70E090E080E00E945C
:104B6000F6206091D4027091D5028091D602909186
:104B7000D7020C9430218091F3020895CF93DF93F4
:104B800000D00F92CDB7DEB790914803943011F565
:104B900089837B836A839093E9008FEF9091E8008B
:104BA000815095FD06C095ED9A95F1F700008111B1
:104BB000F5CF8091E80085FF0DC050E040E063E054
:104BC00070E0CE0101960E9439288091E8008E772E
:104BD0008093E8000F900F900F90DF91CF91089590
:104BE000BC0184E00C94BE25BC0183E00C94BE257E
:104BF0009C0184E08093E9009FEF8091E800915050
:104C000085FD06C085ED8A95F1F700009111F5CF7D
:104C10008091E80085FF0CC050E040E066E070E065
:104C2000C9010E9439288091E8008E778093E800BE
:104C30000895CF93DF93EC0181E08093E9008FEF3B
:104C40009091E800815095FD06C095ED9A95F1F799
:104C500000008111F5CF8091E80085FF14C050E07D
:104C600040E068E070E0CE010E9439288091E800C1
:104C70008E778093E80088E0FE01ABEEB2E0019011
:104C80000D928A95E1F7DF91CF910895CF93FC01C2
:104C9000603221F580914803843001F5C091E9002C
:104CA000CF702091EC00922F917020FD90E8C92BDD
:104CB00082E08093E9008091E80080FF0CC050E022
:104CC00040E060E270E0CF010E9439288091E80066
:104CD0008E778093E800CF70C093E900CF9108955C
:104CE00080914703811109C00E94182A0E94752AE9
:104CF0008091E20084608093E2000895109247035F
:104D0000089508950895089542E061EC81E00E94BD
:104D1000942942E261EC84E00E94942942E261EC31
:104D200082E00E94942942E260EC83E00C94942992
:104D300080914A03833009F461C030F48130D1F1AD
:104D4000823009F49DC008958A3009F489C08B30FF
:104D500009F46FC0893009F050C080914903813255
:104D600009F04BC080914D0390914E03009719F0CC
:104D7000029709F042C08091E800877F8093E800A5
:104D80008091E80082FF35C09091F3008091F2009D
:104D9000029729F48091F1008B7F813021F480917A
:104DA000F1008093F3028091E8008B778093E80014
:104DB0000C94C82980914903813AF9F48091E80064
:104DC000877F8093E80080914D0390914E03892B5B
:104DD00061F468E08BEE92E070E00E94D728809149
:104DE000E8008B778093E800089560E090E080E031
:104DF000F3CF809148038111C3CF08958091490377
:104E0000813AD9F780914D0390914E03892BA9F7F0
:104E10008091E800877F8093E8008091E80080FF20
:104E2000FCCF80912B018093F1008091E8008E7778
:104E3000BDCF80914903813201F780914D0390915C
:104E40004E03892BD1F68091E800877F8093E8009C
:104E50000E94C82980914B0380932B010C94D61D8E
:104E600080914903813249F68091E800877F8093E1
:104E7000E8000E94C82980914C038093F4020895B1
:104E800080914903813A09F0B8CF8091E800877F8B
:104E90008093E8008091E80080FFFCCF8091F402CD
:104EA000C2CFCDB7DEB7A0970FB6F894DEBF0FBE66
:104EB000CDBF84B7877F84BF0FB6F894A895809143
:104EC0006000886180936000109260000FBE80E8EF
:104ED00090E00FB6F89480936100909361000FBE4C
:104EE0000E9458190E94182A0E94752A8091E20097
:104EF00084608093E20078940E94FE2C0E946819DE
:104F000081E291E00E94E11813E08091480385302E
:104F1000C9F00E947419809148038430D1F00E9436
:104F200066190E946719F1CF0E9489248091460377
:104F3000882341F00E94BA24882321F00E9423286C
:104F40000E94D61D80914803853071F30E94D224BF
:104F5000E0CF1093E9008091E80082FFE0CF8091DC
:104F6000E80090E085FF09C050E040E060E270E0BA
:104F7000CE0101960E94882891E08091E8008B770D
:104F80008093E800992359F260E2CE0101960E94D5
:104F90008414C5CF0C94CC27292F33272330310517
:104FA00021F168F42130310509F443C02230310584
:104FB00009F444C090E080E030E020E026C02132D7
:104FC000310551F122323105A9F76330710590F7AF
:104FD000FB01EE0FFF1FE053FE4F20813181635331
:104FE0007E4FFB01808190E010C0992781309105B0
:104FF00081F0009729F00297E9F6EEECF5E002C0A7
:10500000E4E0F6E0849190E09F01FA01318320838F
:105010000895E4EFF5E0F6CF6330710558F6660FBA
:10502000771FFB01EA52FE4F2081318189E090E039
:10503000ECCF82E190E023E636E0E7CF8BE590E02D
:1050400028E036E0E2CF80E189BD82E189BD09B484
:1050500000FEFDCF8091D8008F7D8093D800809195
:10506000E00082608093E0008091E00081FDFCCF51
:105070000895AF92BF92CF92DF92FF920F931F934A
:10508000CF93DF936C01EB018A010E94E729F82E90
:10509000811123C00115110539F0F801808191813A
:1050A000C81BD90BC80ED91EB12CA12C2097A9F072
:1050B0008091E80085FD22C08091E8008E77809382
:1050C000E80001151105A1F0F80180819181A80E79
:1050D000B91EB182A08285E0F82E8F2DDF91CF918D
:1050E0001F910F91FF90DF90CF90BF90AF900895E8
:1050F0000E94E7298823D1F2F82EEFCFF6018191A3
:105100006F018093F1002197FFEFAF1ABF0ACECF56
:10511000AF92BF92CF92DF92FF920F931F93CF93E4
:10512000DF936C01EB018A010E94E729F82E8111BF
:1051300023C00115110539F0F80180819181C81B48
:10514000D90BC80ED91EB12CA12C2097A9F08091A3
:10515000E80085FD22C08091E8008B778093E8000D
:1051600001151105A1F0F80180819181A80EB91EE9
:10517000B182A08285E0F82E8F2DDF91CF911F9113
:105180000F91FF90DF90CF90BF90AF9008950E9455
:10519000E7298823D1F2F82EEFCF8091F100F601B4
:1051A00081936F012197FFEFAF1ABF0ACECFFC01A9
:1051B00080914F039091500386179707A0F06115D7
:1051C000710529F49091E8009E779093E80090E0B3
:1051D0006115710551F4911108C08091E80082FFBA
:1051E00034C080E00895BC01F2CF80914803882349
:1051F000C1F18530C1F18091E80083FD30C080911C
:10520000E80082FDEACF8091E80080FFE1CF809145
:10521000F3002091F200382F6115710519F0283044
:10522000310558F091E02830310509F090E02091E7
:10523000E8002E772093E800CBCF81918093F10096
:10524000615071092F5F3F4FE7CF8091480388235A
:1052500041F0853041F08091E80083FFBECF81E0CE
:10526000089582E0089583E00895FC0180914F0342
:105270009091500386179707A0F06115710529F4E6
:105280008091E8008E778093E80090E061157105C9
:1052900051F4911108C08091E80082FF35C080E090
:1052A0000895BC01F2CF809148038823C9F185306D
:1052B000C9F18091E80083FD31C08091E80082FD52
:1052C000EACF8091E80080FFE1CF8091F300209148
:1052D000F200382F6115710519F02830310558F0AA
:1052E00091E02830310509F090E08091E8008E7758
:1052F0008093E800CBCF84918093F1003196615088
:1053000071092F5F3F4FE6CF80914803882341F01A
:10531000853041F08091E80083FFBDCF81E00895A2
:1053200082E0089583E00895982F973028F08F70D9
:105330008093E90081E008959093E900242F762F6F
:1053400050E0981731F07091EC002091ED005091F1
:10535000F00021FD02C09F5FE8CF3091EB003E7F5F
:105360003093EB003091ED003D7F3093ED003091B4
:10537000EB0031603093EB007093EC002093ED0074
:105380005093F0002091EE0027FDE5CF80E00895D6
:105390008091490387FF13C08091E80082FF06C017
:1053A0008091E8008B778093E80004C080914803E7
:1053B0008111F2CF0895809148038823D9F3809119
:1053C000E80080FFF8CF8091E8008E77ECCF209145
:1053D000E4003091E50095E6A9012091EC00822FD0
:1053E000817020FF06C08091E80080FF06C080E049
:1053F00008952091E80022FD1AC080914803882377
:1054000089F0853089F08091EB0085FD0FC02091F7
:10541000E4003091E50042175307F9F29150E1F6AC
:1054200084E0089582E0089583E0089581E008957E
:105430000E94862A0E948E2AE0EEF0E08081816040
:105440008083E8EDF0E080818F77808319BCA7ED41
:10545000B0E08C918E7F8C9380818F7E80831092C0
:10546000470308950F931F93CF93DF930E94862ADB
:105470000E948E2AC8EDD0E088818F77888388814A
:105480008068888388818F7D888319BC1092480347
:1054900010924403109246031092450300EE10E070
:1054A000F80180818B7F808388818160888342E0DE
:1054B00060E080E00E949429E1EEF0E080818E7F40
:1054C0008083E2EEF0E0808181608083808188606B
:1054D0008083F80180818E7F8083888180618883CA
:1054E000DF91CF911F910F910895E8EDF0E0808159
:1054F0008F7E8083E7EDF0E080818160808384E0AF
:1055000082BF81E0809347030C94322AE8EDF0E0FB
:1055100080818E7F80831092E20008951092DA00DD
:105520001092E10008951F920F920FB60F9211246E
:105530002F933F934F935F936F937F938F939F939B
:10554000AF93BF93EF93FF938091E10082FF0BC075
:105550008091E20082FF07C08091E1008B7F809301
:10556000E1000E94FD2C8091DA0080FF19C080913B
:10557000D80080FF15C08091DA008E7F8093DA001A
:105580008091D90080FF96C080E189BD82E189BD0C
:1055900009B400FEFDCF81E0809348030E9470268D
:1055A0008091E10080FF19C08091E20080FF15C06A
:1055B0008091E2008E7F8093E2008091E200806122
:1055C0008093E2008091D80080628093D80019BC5B
:1055D00085E0809348030E9482268091E10084FF49
:1055E0002BC08091E20084FF27C080E189BD82E169
:1055F00089BD89B5982F917080FFFBCF8091D8002D
:105600008F7D8093D8008091E1008F7E8093E100B0
:105610008091E2008F7E8093E2008091E2008160C1
:105620008093E20080914403882309F449C084E018
:10563000809348030E9483268091E10083FF29C064
:105640008091E20083FF25C08091E100877F8093F5
:10565000E10082E080934803109244038091E100CE
:105660008E7F8093E1008091E2008E7F8093E20044
:105670008091E20080618093E20042E060E080E09F
:105680000E9494298091F00088608093F0000E942D
:105690008126FF91EF91BF91AF919F918F917F9163
:1056A0006F915F914F913F912F910F900FBE0F908F
:1056B0001F90189519BC109248030E947E2670CF47
:1056C0008091E30087FD93E090934803B3CF1F924E
:1056D0000F920FB60F9211242F933F934F935F9326
:1056E0006F937F938F939F93AF93BF93CF93DF93EA
:1056F000EF93FF93D091E900DF708091EC00C82F09
:10570000C17080FDC0E81092E9008091F000877FB1
:105710008093F00078940E94AB2B1092E900809166
:10572000F00088608093F000CD2BCF70C093E9002B
:10573000FF91EF91DF91CF91BF91AF919F918F91A9
:105740007F916F915F914F913F912F910F900FBE7D
:105750000F901F9018951F93CF93DF93CDB7DEB7AF
:10576000AA970FB6F894DEBF0FBECDBF89E493E0D1
:105770002091F100FC012193CF01F3E081359F07D7
:10578000B9F70E9498268091E80083FF1EC180919E
:10579000490390914A039A3008F017C1E92FF0E0CD
:1057A000E054F14D0C946F2D803899F0823809F057
:1057B0000CC180914D038F70873008F006C1809333
:1057C000E9008091EB0085FB882780F91092E900C1
:1057D00006C080914503909146039111826090919B
:1057E000E800977F9093E8008093F1001092F10019
:1057F0008091E8008E77E5C0882309F4D3C0823019
:1058000009F0E3C080914B038111D6C080914D0314
:105810008F702FEF280F263008F0D7C08093E90053
:105820002091EB0020FFC8C0933031F48091EB0051
:1058300080628093EB00C0C09091EB0090619093E8
:10584000EB0021E030E001C0220F8A95EAF72093B7
:10585000EA001092EA008091EB008860EACF8111A3
:10586000B4C010914B031F778091E3008078812BA7
:105870008093E3008091E800877F8093E8000E9496
:10588000C8298091E80080FFFCCF8091E300806808
:105890008093E30082E0111183E08093480395C078
:1058A0008058823008F091C080914B0390914C0356
:1058B0008C3D23E09207A1F583E08A838AE2898305
:1058C0004FB7F894DE01139620E03EE051E2E32F5B
:1058D000F0E050935700E49120FF03C0E295EF7091
:1058E0003F5FEF708E2F90E0EA30C0F0C7968D9347
:1058F0009D932F5F243159F74FBF8091E800877F38
:105900008093E8006AE270E0CE0101960E94D728F9
:105910008091E8008B778093E80057C0C096E7CF6E
:1059200060914D0370914E03AE014F5F5F4F0E9437
:10593000CA27BC01892B09F448C09091E800977FE1
:105940009093E80089819A810E943529E1CF8038BF
:10595000E1F58091E800877F8093E800809144031F
:105960008093F10045CF811130C090914B0392306C
:1059700060F58091E800877F8093E800909344036E
:105980000E94C82980914403882311F084E005C057
:105990008091E30087FDFACF81E0809348030E9465
:1059A000842613C080914B03813079F481E09330D9
:1059B00009F080E0809346031092E9008091E800AE
:1059C000877F8093E8000E94C8298091E80083FFC8
:1059D0000AC08091E800877F8093E8008091EB0007
:1059E00080628093EB00AA960FB6F894DEBF0FBEDC
:1059F000CDBFDF91CF911F9108950895CF938091EE
:105A000048038823A1F0C091E900CF709091EC0089
:105A1000892F817090FD80E8C82B1092E900809159
:105A2000E80083FD0E94AB2BCF70C093E900CF91BB
:105A30000895991B79E004C0991F961708F0961BEA
:105A4000881F7A95C9F780950895AA1BBB1B51E161
:105A500007C0AA1FBB1FA617B70710F0A61BB70BDE
:105A6000881F991F5A95A9F780959095BC01CD0183
:105A7000089597FB072E16F4009407D077FD09D000
:105A80000E94252D07FC05D03EF4909581959F4FEF
:105A90000895709561957F4F0895A1E21A2EAA1B73
:105AA000BB1BFD010DC0AA1FBB1FEE1FFF1FA217CE
:105AB000B307E407F50720F0A21BB30BE40BF50BCB
:105AC000661F771F881F991F1A9469F76095709554
:105AD000809590959B01AC01BD01CF010895EE0F1B
